{
  "contractName": "Exchange",
  "abi": [
    {
      "inputs": [
        {
          "internalType": "address",
          "name": "_globalConfig",
          "type": "address"
        }
      ],
      "payable": false,
      "stateMutability": "nonpayable",
      "type": "constructor"
    },
    {
      "anonymous": false,
      "inputs": [
        {
          "indexed": true,
          "internalType": "bytes32",
          "name": "orderHash",
          "type": "bytes32"
        }
      ],
      "name": "Cancel",
      "type": "event"
    },
    {
      "anonymous": false,
      "inputs": [
        {
          "indexed": false,
          "internalType": "address",
          "name": "perpetual",
          "type": "address"
        },
        {
          "components": [
            {
              "internalType": "address",
              "name": "trader",
              "type": "address"
            },
            {
              "internalType": "uint256",
              "name": "amount",
              "type": "uint256"
            },
            {
              "internalType": "uint256",
              "name": "price",
              "type": "uint256"
            },
            {
              "internalType": "bytes32",
              "name": "data",
              "type": "bytes32"
            },
            {
              "components": [
                {
                  "internalType": "bytes32",
                  "name": "config",
                  "type": "bytes32"
                },
                {
                  "internalType": "bytes32",
                  "name": "r",
                  "type": "bytes32"
                },
                {
                  "internalType": "bytes32",
                  "name": "s",
                  "type": "bytes32"
                }
              ],
              "internalType": "struct LibSignature.OrderSignature",
              "name": "signature",
              "type": "tuple"
            }
          ],
          "indexed": false,
          "internalType": "struct LibOrder.OrderParam",
          "name": "takerOrderParam",
          "type": "tuple"
        },
        {
          "indexed": false,
          "internalType": "uint256",
          "name": "amount",
          "type": "uint256"
        }
      ],
      "name": "MatchWithAMM",
      "type": "event"
    },
    {
      "anonymous": false,
      "inputs": [
        {
          "indexed": false,
          "internalType": "address",
          "name": "perpetual",
          "type": "address"
        },
        {
          "components": [
            {
              "internalType": "address",
              "name": "trader",
              "type": "address"
            },
            {
              "internalType": "uint256",
              "name": "amount",
              "type": "uint256"
            },
            {
              "internalType": "uint256",
              "name": "price",
              "type": "uint256"
            },
            {
              "internalType": "bytes32",
              "name": "data",
              "type": "bytes32"
            },
            {
              "components": [
                {
                  "internalType": "bytes32",
                  "name": "config",
                  "type": "bytes32"
                },
                {
                  "internalType": "bytes32",
                  "name": "r",
                  "type": "bytes32"
                },
                {
                  "internalType": "bytes32",
                  "name": "s",
                  "type": "bytes32"
                }
              ],
              "internalType": "struct LibSignature.OrderSignature",
              "name": "signature",
              "type": "tuple"
            }
          ],
          "indexed": false,
          "internalType": "struct LibOrder.OrderParam",
          "name": "takerOrderParam",
          "type": "tuple"
        },
        {
          "components": [
            {
              "internalType": "address",
              "name": "trader",
              "type": "address"
            },
            {
              "internalType": "uint256",
              "name": "amount",
              "type": "uint256"
            },
            {
              "internalType": "uint256",
              "name": "price",
              "type": "uint256"
            },
            {
              "internalType": "bytes32",
              "name": "data",
              "type": "bytes32"
            },
            {
              "components": [
                {
                  "internalType": "bytes32",
                  "name": "config",
                  "type": "bytes32"
                },
                {
                  "internalType": "bytes32",
                  "name": "r",
                  "type": "bytes32"
                },
                {
                  "internalType": "bytes32",
                  "name": "s",
                  "type": "bytes32"
                }
              ],
              "internalType": "struct LibSignature.OrderSignature",
              "name": "signature",
              "type": "tuple"
            }
          ],
          "indexed": false,
          "internalType": "struct LibOrder.OrderParam",
          "name": "makerOrderParam",
          "type": "tuple"
        },
        {
          "indexed": false,
          "internalType": "uint256",
          "name": "amount",
          "type": "uint256"
        }
      ],
      "name": "MatchWithOrders",
      "type": "event"
    },
    {
      "anonymous": false,
      "inputs": [
        {
          "indexed": true,
          "internalType": "address",
          "name": "trader",
          "type": "address"
        },
        {
          "indexed": true,
          "internalType": "address",
          "name": "perpetual",
          "type": "address"
        },
        {
          "indexed": true,
          "internalType": "address",
          "name": "newDelegator",
          "type": "address"
        }
      ],
      "name": "UpdateDelegate",
      "type": "event"
    },
    {
      "constant": true,
      "inputs": [],
      "name": "SUPPORTED_ORDER_VERSION",
      "outputs": [
        {
          "internalType": "uint256",
          "name": "",
          "type": "uint256"
        }
      ],
      "payable": false,
      "stateMutability": "view",
      "type": "function"
    },
    {
      "constant": true,
      "inputs": [
        {
          "internalType": "bytes32",
          "name": "",
          "type": "bytes32"
        }
      ],
      "name": "cancelled",
      "outputs": [
        {
          "internalType": "bool",
          "name": "",
          "type": "bool"
        }
      ],
      "payable": false,
      "stateMutability": "view",
      "type": "function"
    },
    {
      "constant": true,
      "inputs": [
        {
          "internalType": "address",
          "name": "",
          "type": "address"
        },
        {
          "internalType": "address",
          "name": "",
          "type": "address"
        }
      ],
      "name": "delegators",
      "outputs": [
        {
          "internalType": "address",
          "name": "",
          "type": "address"
        }
      ],
      "payable": false,
      "stateMutability": "view",
      "type": "function"
    },
    {
      "constant": true,
      "inputs": [
        {
          "internalType": "bytes32",
          "name": "",
          "type": "bytes32"
        }
      ],
      "name": "filled",
      "outputs": [
        {
          "internalType": "uint256",
          "name": "",
          "type": "uint256"
        }
      ],
      "payable": false,
      "stateMutability": "view",
      "type": "function"
    },
    {
      "constant": true,
      "inputs": [],
      "name": "globalConfig",
      "outputs": [
        {
          "internalType": "contract IGlobalConfig",
          "name": "",
          "type": "address"
        }
      ],
      "payable": false,
      "stateMutability": "view",
      "type": "function"
    },
    {
      "constant": false,
      "inputs": [
        {
          "internalType": "address",
          "name": "perpetual",
          "type": "address"
        },
        {
          "internalType": "address",
          "name": "newDelegator",
          "type": "address"
        }
      ],
      "name": "setDelegator",
      "outputs": [],
      "payable": false,
      "stateMutability": "nonpayable",
      "type": "function"
    },
    {
      "constant": false,
      "inputs": [
        {
          "internalType": "address",
          "name": "perpetual",
          "type": "address"
        }
      ],
      "name": "unsetDelegator",
      "outputs": [],
      "payable": false,
      "stateMutability": "nonpayable",
      "type": "function"
    },
    {
      "constant": true,
      "inputs": [
        {
          "internalType": "address",
          "name": "trader",
          "type": "address"
        },
        {
          "internalType": "address",
          "name": "perpetual",
          "type": "address"
        },
        {
          "internalType": "address",
          "name": "target",
          "type": "address"
        }
      ],
      "name": "isDelegator",
      "outputs": [
        {
          "internalType": "bool",
          "name": "",
          "type": "bool"
        }
      ],
      "payable": false,
      "stateMutability": "view",
      "type": "function"
    },
    {
      "constant": false,
      "inputs": [
        {
          "components": [
            {
              "internalType": "address",
              "name": "trader",
              "type": "address"
            },
            {
              "internalType": "uint256",
              "name": "amount",
              "type": "uint256"
            },
            {
              "internalType": "uint256",
              "name": "price",
              "type": "uint256"
            },
            {
              "internalType": "bytes32",
              "name": "data",
              "type": "bytes32"
            },
            {
              "components": [
                {
                  "internalType": "bytes32",
                  "name": "config",
                  "type": "bytes32"
                },
                {
                  "internalType": "bytes32",
                  "name": "r",
                  "type": "bytes32"
                },
                {
                  "internalType": "bytes32",
                  "name": "s",
                  "type": "bytes32"
                }
              ],
              "internalType": "struct LibSignature.OrderSignature",
              "name": "signature",
              "type": "tuple"
            }
          ],
          "internalType": "struct LibOrder.OrderParam",
          "name": "takerOrderParam",
          "type": "tuple"
        },
        {
          "components": [
            {
              "internalType": "address",
              "name": "trader",
              "type": "address"
            },
            {
              "internalType": "uint256",
              "name": "amount",
              "type": "uint256"
            },
            {
              "internalType": "uint256",
              "name": "price",
              "type": "uint256"
            },
            {
              "internalType": "bytes32",
              "name": "data",
              "type": "bytes32"
            },
            {
              "components": [
                {
                  "internalType": "bytes32",
                  "name": "config",
                  "type": "bytes32"
                },
                {
                  "internalType": "bytes32",
                  "name": "r",
                  "type": "bytes32"
                },
                {
                  "internalType": "bytes32",
                  "name": "s",
                  "type": "bytes32"
                }
              ],
              "internalType": "struct LibSignature.OrderSignature",
              "name": "signature",
              "type": "tuple"
            }
          ],
          "internalType": "struct LibOrder.OrderParam[]",
          "name": "makerOrderParams",
          "type": "tuple[]"
        },
        {
          "internalType": "address",
          "name": "_perpetual",
          "type": "address"
        },
        {
          "internalType": "uint256[]",
          "name": "amounts",
          "type": "uint256[]"
        }
      ],
      "name": "matchOrders",
      "outputs": [],
      "payable": false,
      "stateMutability": "nonpayable",
      "type": "function"
    },
    {
      "constant": false,
      "inputs": [
        {
          "components": [
            {
              "internalType": "address",
              "name": "trader",
              "type": "address"
            },
            {
              "internalType": "uint256",
              "name": "amount",
              "type": "uint256"
            },
            {
              "internalType": "uint256",
              "name": "price",
              "type": "uint256"
            },
            {
              "internalType": "bytes32",
              "name": "data",
              "type": "bytes32"
            },
            {
              "components": [
                {
                  "internalType": "bytes32",
                  "name": "config",
                  "type": "bytes32"
                },
                {
                  "internalType": "bytes32",
                  "name": "r",
                  "type": "bytes32"
                },
                {
                  "internalType": "bytes32",
                  "name": "s",
                  "type": "bytes32"
                }
              ],
              "internalType": "struct LibSignature.OrderSignature",
              "name": "signature",
              "type": "tuple"
            }
          ],
          "internalType": "struct LibOrder.OrderParam",
          "name": "takerOrderParam",
          "type": "tuple"
        },
        {
          "internalType": "address",
          "name": "_perpetual",
          "type": "address"
        },
        {
          "internalType": "uint256",
          "name": "amount",
          "type": "uint256"
        }
      ],
      "name": "matchOrderWithAMM",
      "outputs": [],
      "payable": false,
      "stateMutability": "nonpayable",
      "type": "function"
    },
    {
      "constant": false,
      "inputs": [
        {
          "components": [
            {
              "internalType": "address",
              "name": "trader",
              "type": "address"
            },
            {
              "internalType": "address",
              "name": "broker",
              "type": "address"
            },
            {
              "internalType": "address",
              "name": "perpetual",
              "type": "address"
            },
            {
              "internalType": "uint256",
              "name": "amount",
              "type": "uint256"
            },
            {
              "internalType": "uint256",
              "name": "price",
              "type": "uint256"
            },
            {
              "internalType": "bytes32",
              "name": "data",
              "type": "bytes32"
            }
          ],
          "internalType": "struct LibOrder.Order",
          "name": "order",
          "type": "tuple"
        }
      ],
      "name": "cancelOrder",
      "outputs": [],
      "payable": false,
      "stateMutability": "nonpayable",
      "type": "function"
    },
    {
      "constant": true,
      "inputs": [],
      "name": "getChainId",
      "outputs": [
        {
          "internalType": "uint256",
          "name": "id",
          "type": "uint256"
        }
      ],
      "payable": false,
      "stateMutability": "pure",
      "type": "function"
    }
  ],
  "bytecode": "0x60806040523480156200001157600080fd5b506040516200383e3803806200383e83398101604081905262000034916200006d565b600080546001600160a01b0319166001600160a01b0392909216919091179055620000c2565b80516200006781620000a8565b92915050565b6000602082840312156200008057600080fd5b60006200008e84846200005a565b949350505050565b60006001600160a01b03821662000067565b620000b38162000096565b8114620000bf57600080fd5b50565b61376c80620000d26000396000f3fe608060405234801561001057600080fd5b50600436106100b45760003560e01c8063767dbe0011610071578063767dbe0014610145578063a2526bd314610158578063a7c1abe014610178578063aaef74901461018d578063abbfbd2e146101a0578063c1e31de9146101b3576100b4565b80631ce92be5146100b95780631e9097e5146100ce578063288cdc91146100e157806328b52bac1461010a5780632ac126221461011d5780633408e4701461013d575b600080fd5b6100cc6100c73660046124b7565b6101bb565b005b6100cc6100dc3660046125d4565b610277565b6100f46100ef36600461255c565b6105de565b6040516101019190613631565b60405180910390f35b6100cc6101183660046126ad565b6105f0565b61013061012b36600461255c565b61068c565b604051610101919061333a565b6100f46106a1565b6101306101533660046124f1565b6106a5565b61016b6101663660046124b7565b6106f8565b60405161010191906131ea565b61018061071e565b6040516101019190613363565b6100cc61019b36600461247b565b61072d565b6100cc6101ae366004612619565b6107ce565b6100f4610f11565b3360009081526003602090815260408083206001600160a01b0386811685529252909120548116908216141561020c5760405162461bcd60e51b8152600401610203906134a1565b60405180910390fd5b3360008181526003602090815260408083206001600160a01b038781168086529190935281842080546001600160a01b031916938716938417905590519193909290917fc3322be4a1a77011b4ecc51d118ba6296b44872e7e4e23f7cc712583ffc068a79190a45050565b6000546040516366874cc560e01b81526001600160a01b03909116906366874cc5906102a79033906004016131f8565b60206040518083038186803b1580156102bf57600080fd5b505afa1580156102d3573d6000803e3d6000fd5b505050506040513d601f19601f820116820180604052506102f7919081019061253e565b6103135760405162461bcd60e51b815260040161020390613391565b600081116103335760405162461bcd60e51b8152600401610203906134c1565b61033c83610f16565b156103595760405162461bcd60e51b815260040161020390613561565b60008290506000816001600160a01b0316632a9439456040518163ffffffff1660e01b815260040160206040518083038186803b15801561039957600080fd5b505afa1580156103ad573d6000803e3d6000fd5b505050506040513d601f19601f820116820180604052506103d1919081019061257a565b905060006103df8387610f2d565b6000818152600160209081526040909120549088015191925090610409908263ffffffff61109116565b8511156104285760405162461bcd60e51b815260040161020390613491565b600080610434896110b9565b905060006104418a6110ee565b905061044c8a6110ff565b156104dd578951604051636dcd09d760e01b81526001600160a01b03881691636dcd09d79161048491908c9087908790600401613305565b602060405180830381600087803b15801561049e57600080fd5b505af11580156104b2573d6000803e3d6000fd5b505050506040513d601f19601f820116820180604052506104d691908101906125b6565b9250610565565b89516040516314775b0f60e31b81526001600160a01b0388169163a3bad8789161051091908c9087908790600401613305565b602060405180830381600087803b15801561052a57600080fd5b505af115801561053e573d6000803e3d6000fd5b505050506040513d601f19601f8201168201806040525061056291908101906125b6565b92505b600085815260016020526040902054610584908963ffffffff61112a16565b6000868152600160205260409081902091909155517f2291ad0d0ff7daae57f534774b1dfb2ca10dad70941e1a8a8a0439b2c1d32b3e906105ca908b908d908c906132db565b60405180910390a150505050505050505050565b60016020526000908152604090205481565b80516001600160a01b031633148061061d575080602001516001600160a01b0316336001600160a01b0316145b6106395760405162461bcd60e51b8152600401610203906133f1565b60006106448261114f565b600081815260026020526040808220805460ff191660011790555191925082917fe8d9861dbc9c663ed3accd261bbe2fe01e0d3d9e5f51fa38523b265c7757a93a9190a25050565b60026020526000908152604090205460ff1681565b4690565b6001600160a01b038084166000908152600360209081526040808320868516845290915281205490911680158015906106ef5750806001600160a01b0316836001600160a01b0316145b95945050505050565b60036020908152600092835260408084209091529082529020546001600160a01b031681565b6000546001600160a01b031681565b3360009081526003602090815260408083206001600160a01b0385811685529252909120541661076f5760405162461bcd60e51b8152600401610203906134b1565b3360008181526003602090815260408083206001600160a01b038616808552925280832080546001600160a01b031916905551919290917fc3322be4a1a77011b4ecc51d118ba6296b44872e7e4e23f7cc712583ffc068a7908490a450565b6000546040516366874cc560e01b81526001600160a01b03909116906366874cc5906107fe9033906004016131f8565b60206040518083038186803b15801561081657600080fd5b505afa15801561082a573d6000803e3d6000fd5b505050506040513d601f19601f8201168201806040525061084e919081019061253e565b61086a5760405162461bcd60e51b815260040161020390613391565b6000815111801561087c575080518351145b6108985760405162461bcd60e51b815260040161020390613591565b6108a184610f16565b156108be5760405162461bcd60e51b815260040161020390613561565b816000816001600160a01b031663200d2ed26040518163ffffffff1660e01b815260040160206040518083038186803b1580156108fa57600080fd5b505afa15801561090e573d6000803e3d6000fd5b505050506040513d601f19601f820116820180604052506109329190810190612598565b600281111561093d57fe5b1461095a5760405162461bcd60e51b815260040161020390613421565b6000816001600160a01b031663289b3c0d6040518163ffffffff1660e01b81526004016101006040518083038186803b15801561099657600080fd5b505afa1580156109aa573d6000803e3d6000fd5b505050506040513d601f19601f820116820180604052506109ce91908101906126cb565b60e00151905060006109e08388610f2d565b600081815260016020526040812054919250805b8851811015610d1c57868181518110610a0957fe5b602002602001015160001415610a1e57610d14565b888181518110610a2a57fe5b6020026020010151600001516001600160a01b03168a600001516001600160a01b03161415610a6b5760405162461bcd60e51b8152600401610203906134d1565b610a87898281518110610a7a57fe5b6020026020010151611162565b1515610a928b611162565b151514610ab15760405162461bcd60e51b815260040161020390613471565b610acd898281518110610ac057fe5b60200260200101516110ff565b1515610ad88b6110ff565b15151415610af85760405162461bcd60e51b8152600401610203906135f1565b610b14898281518110610b0757fe5b6020026020010151611173565b15610b315760405162461bcd60e51b815260040161020390613531565b610b4e8a8a8381518110610b4157fe5b6020026020010151611184565b6000610b6d878b8481518110610b6057fe5b6020026020010151610f2d565b600081815260016020908152604090912054908d015191925090610b97908663ffffffff61109116565b898481518110610ba357fe5b60200260200101511115610bc95760405162461bcd60e51b815260040161020390613491565b610bf3818c8581518110610bd957fe5b60200260200101516020015161109190919063ffffffff16565b898481518110610bff57fe5b60200260200101511115610c255760405162461bcd60e51b815260040161020390613381565b610c4b878a8581518110610c3557fe5b60200260200101516111ef90919063ffffffff16565b15610c685760405162461bcd60e51b815260040161020390613541565b6000610c9c898e8e8781518110610c7b57fe5b60200260200101518d8881518110610c8f57fe5b602002602001015161121f565b9050610cae858263ffffffff61112a16565b9450610cd68a8581518110610cbf57fe5b60200260200101518361112a90919063ffffffff16565b6000848152600160205260409020558951610d0e908b9086908110610cf757fe5b60200260200101518761112a90919063ffffffff16565b95505050505b6001016109f4565b508015610dc3578851604051632d4ae21b60e21b81526001600160a01b0387169163b52b886c91610d5091906004016131ea565b602060405180830381600087803b158015610d6a57600080fd5b505af1158015610d7e573d6000803e3d6000fd5b505050506040513d601f19601f82011682018060405250610da2919081019061253e565b610dbe5760405162461bcd60e51b8152600401610203906133e1565b610e5e565b8851604051631da68a2b60e21b81526001600160a01b0387169163769a28ac91610df091906004016131ea565b602060405180830381600087803b158015610e0a57600080fd5b505af1158015610e1e573d6000803e3d6000fd5b505050506040513d601f19601f82011682018060405250610e42919081019061253e565b610e5e5760405162461bcd60e51b815260040161020390613601565b604051631da68a2b60e21b81526001600160a01b0386169063769a28ac90610e8a9033906004016131f8565b602060405180830381600087803b158015610ea457600080fd5b505af1158015610eb8573d6000803e3d6000fd5b505050506040513d601f19601f82011682018060405250610edc919081019061253e565b610ef85760405162461bcd60e51b815260040161020390613481565b5060009182526001602052604090912055505050505050565b600281565b6060810151600090819060165b1a1190505b919050565b60006002610f3a8361150a565b14610f575760405162461bcd60e51b815260040161020390613411565b42610f61836110ee565b1015610f7f5760405162461bcd60e51b8152600401610203906133c1565b610f876106a1565b610f9083611514565b14610fad5760405162461bcd60e51b815260040161020390613621565b6000610fc083853363ffffffff61152516565b60008181526002602052604090205490915060ff1615610ff25760405162461bcd60e51b8152600401610203906133b1565b608083015160009061100a908363ffffffff61154816565b905083600001516001600160a01b0316816001600160a01b03161480611038575083516110389086836106a5565b6110545760405162461bcd60e51b8152600401610203906133a1565b60208085015160008481526001909252604090912054106110875760405162461bcd60e51b815260040161020390613441565b5090505b92915050565b6000828211156110b35760405162461bcd60e51b815260040161020390613611565b50900390565b60006110c482611162565b6110d257816040015161108b565b61108b82604001516110e26115db565b9063ffffffff6115e716565b6060015160c01c64ffffffffff1690565b6060810151600090600190811a1461111683611162565b6111205780611123565b80155b9392505050565b6000828201838110156111235760405162461bcd60e51b815260040161020390613431565b600061108b61115d83611618565b611659565b606081015160009081906017610f23565b606081015160009081906002610f23565b61118d82611173565b15611197576111eb565b60006111a2836110b9565b905060006111af836110b9565b90506111ba846110ff565b6111c757808210156111cc565b808211155b6111e85760405162461bcd60e51b815260040161020390613581565b50505b5050565b60008161120e5760405162461bcd60e51b815260040161020390613401565b81838161121757fe5b069392505050565b60008061122b846110b9565b9050600080876001600160a01b03166319d3b88b886000015188600001516112528b611716565b878a6040518663ffffffff1660e01b8152600401611274959493929190613249565b6040805180830381600087803b15801561128d57600080fd5b505af11580156112a1573d6000803e3d6000fd5b505050506040513d601f19601f820116820180604052506112c591908101906126ea565b9150915060006112fb6112d789611734565b6112ef6112ea898863ffffffff61177116565b611799565b9063ffffffff6117c616565b905061130c898960000151836117fb565b600061132d61131a896118f4565b6112ef6112ea8a8963ffffffff61177116565b905061133e8a8960000151836117fb565b885161135d908b9087876113588c8263ffffffff61109116565b611925565b875161137c908b9087866113778c8263ffffffff61109116565b6119b5565b8215611422578751604051632d4ae21b60e21b81526001600160a01b038c169163b52b886c916113af91906004016131ea565b602060405180830381600087803b1580156113c957600080fd5b505af11580156113dd573d6000803e3d6000fd5b505050506040513d601f19601f82011682018060405250611401919081019061253e565b61141d5760405162461bcd60e51b815260040161020390613461565b6114bd565b8751604051631da68a2b60e21b81526001600160a01b038c169163769a28ac9161144f91906004016131ea565b602060405180830381600087803b15801561146957600080fd5b505af115801561147d573d6000803e3d6000fd5b505050506040513d601f19601f820116820180604052506114a1919081019061253e565b6114bd5760405162461bcd60e51b815260040161020390613601565b7ff54fd29e6ef26f15c6e42abb5c750ed8c161e46b026a5f273c14b6bc1b76f8ef8a8a8a8a6040516114f294939291906132a3565b60405180910390a1509193505050505b949350505050565b6060015160f81c90565b6060015167ffffffffffffffff1690565b600061152f6120d2565b61153a858585611a3d565b90506106ef61115d82611618565b8151600090600181901a90821a8161159b576115948460405160200161156e919061319d565b604051602081830303815290604052805190602001208287602001518860400151611a8e565b92506115d3565b60ff8216600114156115bb57611594848287602001518860400151611a8e565b60405162461bcd60e51b8152600401610203906135a1565b505092915050565b670de0b6b3a764000090565b6000816116096115ff85670de0b6b3a7640000611b75565b6002855b0461112a565b8161161057fe5b049392505050565b60008060405160200161162a906131df565b60408051601f19818403810182529290915280516020909101209301805193815260e081209390525090919050565b600060405160200161166a906131d4565b60408051601f1981840301815282825280516020918201208383018352600c84526b13585a48141c9bdd1bd8dbdb60a21b9382019390935290516116d192917fd9dd2eed8751af214e5841ee198a64943839835c8fbe48995fc2fb3d322f36289101613177565b60405160208183030381529060405280519060200120826040516020016116f99291906131bd565b604051602081830303815290604052805190602001209050919050565b6000611721826110ff565b61172c57600261108b565b506001919050565b600061108b620186a06117656117486115db565b60508660600151901b60f01c60010b611baf90919063ffffffff16565b9063ffffffff611c1a16565b6000670de0b6b3a76400006116096117898585611b75565b6002670de0b6b3a7640000611603565b60006001600160ff1b038211156117c25760405162461bcd60e51b8152600401610203906135c1565b5090565b6000670de0b6b3a76400006117ec6117de8585611baf565b670de0b6b3a7640000611c7e565b816117f357fe5b059392505050565b600081131561187357826001600160a01b0316639272c80e833361181e85611cc8565b6040518463ffffffff1660e01b815260040161183c9392919061322e565b600060405180830381600087803b15801561185657600080fd5b505af115801561186a573d6000803e3d6000fd5b505050506118ef565b60008112156118ef57826001600160a01b0316639272c80e338461189e61189986611cea565b611cc8565b6040518463ffffffff1660e01b81526004016118bc93929190613206565b600060405180830381600087803b1580156118d657600080fd5b505af11580156118ea573d6000803e3d6000fd5b505050505b505050565b600061108b620186a06117656119086115db565b60408660600151901b60f01c60010b611baf90919063ffffffff16565b6000856001600160a01b031663289b3c0d6040518163ffffffff1660e01b81526004016101006040518083038186803b15801561196157600080fd5b505afa158015611975573d6000803e3d6000fd5b505050506040513d601f19601f8201168201806040525061199991908101906126cb565b6080015190506119ad868686868686611cf7565b505050505050565b6000856001600160a01b031663289b3c0d6040518163ffffffff1660e01b81526004016101006040518083038186803b1580156119f157600080fd5b505afa158015611a05573d6000803e3d6000fd5b505050506040513d601f19601f82011682018060405250611a2991908101906126cb565b60a0015190506119ad868686868686611cf7565b611a456120d2565b83516001600160a01b039081168252918216602080830191909152929091166040808301919091529183015160608083019190915291830151608082015291015160a082015290565b60006fa2a8918ca85bafe22016d0b997e4df60600160ff1b03821115611ac65760405162461bcd60e51b815260040161020390613451565b8360ff16601b14158015611ade57508360ff16601c14155b15611afb5760405162461bcd60e51b815260040161020390613501565b600060018686868660405160008152602001604052604051611b209493929190613348565b6020604051602081039080840390855afa158015611b42573d6000803e3d6000fd5b5050604051601f1901519150506001600160a01b0381166106ef5760405162461bcd60e51b815260040161020390613371565b600082611b845750600061108b565b82820282848281611b9157fe5b04146111235760405162461bcd60e51b8152600401610203906134e1565b600082611bbe5750600061108b565b82600019148015611bd25750600160ff1b82145b15611bef5760405162461bcd60e51b8152600401610203906135b1565b82820282848281611bfc57fe5b05146111235760405162461bcd60e51b8152600401610203906135b1565b600081611c395760405162461bcd60e51b815260040161020390613521565b81600019148015611c4d5750600160ff1b83145b15611c6a5760405162461bcd60e51b815260040161020390613551565b6000828481611c7557fe5b05949350505050565b6000808213611c9f5760405162461bcd60e51b8152600401610203906134f1565b60008312611cbb57611cb4836002840561202f565b905061108b565b6111238360028405612075565b6000808212156117c25760405162461bcd60e51b8152600401610203906135d1565b600061108b600083612075565b80611d01576119ad565b6000866001600160a01b0316633ad10ef66040518163ffffffff1660e01b815260040160206040518083038186803b158015611d3c57600080fd5b505afa158015611d50573d6000803e3d6000fd5b505050506040513d601f19601f82011682018060405250611d749190810190612499565b90506000876001600160a01b031663711d4d55886040518263ffffffff1660e01b8152600401611da491906131ea565b602060405180830381600087803b158015611dbe57600080fd5b505af1158015611dd2573d6000803e3d6000fd5b505050506040513d601f19601f82011682018060405250611df691908101906125b6565b90506000611e11846112ef6112ea8a8a63ffffffff61177116565b9050600081131580611e235750808212155b611e3f5760405162461bcd60e51b8152600401610203906133d1565b6000611e58856112ef6112ea8b8a63ffffffff61177116565b90506000811315611e865760008312611e8057611e7b818463ffffffff6120bb16565b611e83565b60005b90505b6000611e98838363ffffffff61202f16565b90506000811315611f12578a6001600160a01b0316639272c80e8b87611ebd85611cc8565b6040518463ffffffff1660e01b8152600401611edb93929190613295565b600060405180830381600087803b158015611ef557600080fd5b505af1158015611f09573d6000803e3d6000fd5b50505050612022565b6000811215612022578a6001600160a01b0316639272c80e868c611f3861189986611cea565b6040518463ffffffff1660e01b8152600401611f5693929190613295565b600060405180830381600087803b158015611f7057600080fd5b505af1158015611f84573d6000803e3d6000fd5b5050604051631da68a2b60e21b81526001600160a01b038e16925063769a28ac9150611fb49088906004016131ea565b602060405180830381600087803b158015611fce57600080fd5b505af1158015611fe2573d6000803e3d6000fd5b505050506040513d601f19601f82011682018060405250612006919081019061253e565b6120225760405162461bcd60e51b815260040161020390613571565b5050505050505050505050565b60008282018183128015906120445750838112155b80612059575060008312801561205957508381125b6111235760405162461bcd60e51b815260040161020390613511565b600081830381831280159061208a5750838113155b8061209f575060008312801561209f57508381135b6111235760405162461bcd60e51b8152600401610203906135e1565b6000818313156120cb5781611123565b5090919050565b6040805160c081018252600080825260208201819052918101829052606081018290526080810182905260a081019190915290565b803561108b816136ed565b805161108b816136ed565b600082601f83011261212e57600080fd5b813561214161213c82613666565b61363f565b915081818352602084019350602081019050838560e084028201111561216657600080fd5b60005b83811015612194578161217c8882612245565b84525060209092019160e09190910190600101612169565b5050505092915050565b600082601f8301126121af57600080fd5b81356121bd61213c82613666565b915081818352602084019350602081019050838560208402820111156121e257600080fd5b60005b8381101561219457816121f88882612219565b84525060209283019291909101906001016121e5565b805161108b81613701565b803561108b8161370a565b805161108b81613713565b805161108b8161371c565b805161108b8161370a565b600060e0828403121561225757600080fd5b61226160a061363f565b9050600061226f8484612107565b825250602061228084848301612219565b602083015250604061229484828501612219565b60408301525060606122a884828501612219565b60608301525060806122bc848285016122c8565b60808301525092915050565b6000606082840312156122da57600080fd5b6122e4606061363f565b905060006122f28484612219565b825250602061230384848301612219565b602083015250604061231784828501612219565b60408301525092915050565b600060c0828403121561233557600080fd5b61233f60c061363f565b9050600061234d8484612107565b825250602061235e84848301612107565b602083015250604061237284828501612107565b604083015250606061238684828501612219565b606083015250608061239a84828501612219565b60808301525060a06123ae84828501612219565b60a08301525092915050565b600061010082840312156123cd57600080fd5b6123d861010061363f565b905060006123e6848461223a565b82525060206123f78484830161223a565b602083015250604061240b8482850161223a565b604083015250606061241f8482850161223a565b60608301525060806124338482850161223a565b60808301525060a06124478482850161223a565b60a08301525060c061245b8482850161223a565b60c08301525060e061246f8482850161223a565b60e08301525092915050565b60006020828403121561248d57600080fd5b60006115028484612107565b6000602082840312156124ab57600080fd5b60006115028484612112565b600080604083850312156124ca57600080fd5b60006124d68585612107565b92505060206124e785828601612107565b9150509250929050565b60008060006060848603121561250657600080fd5b60006125128686612107565b935050602061252386828701612107565b925050604061253486828701612107565b9150509250925092565b60006020828403121561255057600080fd5b6000611502848461220e565b60006020828403121561256e57600080fd5b60006115028484612219565b60006020828403121561258c57600080fd5b60006115028484612224565b6000602082840312156125aa57600080fd5b6000611502848461222f565b6000602082840312156125c857600080fd5b6000611502848461223a565b600080600061012084860312156125ea57600080fd5b60006125f68686612245565b93505060e061260786828701612107565b92505061010061253486828701612219565b600080600080610140858703121561263057600080fd5b600061263c8787612245565b94505060e085013567ffffffffffffffff81111561265957600080fd5b6126658782880161211d565b93505061010061267787828801612107565b92505061012085013567ffffffffffffffff81111561269557600080fd5b6126a18782880161219e565b91505092959194509250565b600060c082840312156126bf57600080fd5b60006115028484612323565b600061010082840312156126de57600080fd5b600061150284846123ba565b600080604083850312156126fd57600080fd5b6000612709858561223a565b92505060206124e78582860161223a565b612723816136ca565b82525050565b61272381613690565b6127238161369b565b612723816136a0565b612723612750826136a0565b6136a0565b612723816136a3565b612723816136d5565b6000612774601883613687565b7745434453413a20696e76616c6964207369676e617475726560401b815260200192915050565b60006127a8601083613687565b6f1b585ad95c881bdd995c999a5b1b195960821b815260200192915050565b60006127d4601383613687565b723ab730baba3437b934bd32b210313937b5b2b960691b815260200192915050565b6000612803601183613687565b70696e76616c6964207369676e617475726560781b815260200192915050565b6000612830600f83613687565b6e31b0b731b2b63632b21037b93232b960891b815260200192915050565b600061285b601c83610f28565b7f19457468657265756d205369676e6564204d6573736167653a0a3332000000008152601c0192915050565b6000612894600d83613687565b6c1bdc99195c88195e1c1a5c9959609a1b815260200192915050565b60006128bd602083613687565b7f617661696c61626c65206d617267696e20746f6f206c6f7720666f7220666565815260200192915050565b60006128f6601b83613687565b7f74616b657220696e697469616c206d617267696e20756e736166650000000000815260200192915050565b600061292f600e83613687565b6d34b73b30b634b21031b0b63632b960911b815260200192915050565b6000612959600283610f28565b61190160f01b815260020192915050565b6000612977600b83613687565b6a6d6f64206279207a65726f60a81b815260200192915050565b600061299e601383613687565b723ab739bab83837b93a32b2103b32b939b4b7b760691b815260200192915050565b60006129cd601683613687565b7577726f6e672070657270657475616c2073746174757360501b815260200192915050565b60006129ff601383613687565b72556e6164646974696f6e206f766572666c6f7760681b815260200192915050565b6000612a2e601083613687565b6f333ab6363334b63632b21037b93232b960811b815260200192915050565b6000612a5a602283613687565b7f45434453413a20696e76616c6964207369676e6174757265202773272076616c815261756560f01b602082015260400192915050565b6000612a9e601b83613687565b7f6d616b657220696e697469616c206d617267696e20756e736166650000000000815260200192915050565b6000612ad7601583613687565b7434b73b30b634b21034b73b32b939b2b2103830b4b960591b815260200192915050565b6000612b08600d83613687565b6c62726f6b657220756e7361666560981b815260200192915050565b6000612b31601083613687565b6f1d185ad95c881bdd995c999a5b1b195960821b815260200192915050565b6000612b5d601483613687565b7319195b1959d85d1948185b1c9958591e481cd95d60621b815260200192915050565b6000612b8d601083613687565b6f19195b1959d85d19481b9bdd081cd95d60821b815260200192915050565b6000612bb9601d83613687565b7f616d6f756e74206d7573742062652067726561746572207468616e2030000000815260200192915050565b6000612bf2600a83613687565b6973656c6620747261646560b01b815260200192915050565b6000612c18601983613687565b78556e6d756c7469706c69636174696f6e206f766572666c6f7760381b815260200192915050565b6000612c4d601f83613687565b7f726f756e6448616c665570206f6e6c7920737570706f7274732079203e203000815260200192915050565b6000612c86602283613687565b7f45434453413a20696e76616c6964207369676e6174757265202776272076616c815261756560f01b602082015260400192915050565b6000612cca601183613687565b706164646974696f6e206f766572666c6f7760781b815260200192915050565b6000612cf7601183613687565b70776469766973696f6e206279207a65726f60781b815260200192915050565b6000612d24601c83613687565b7f6d61726b6574206f726465722063616e6e6f74206265206d616b657200000000815260200192915050565b6000612d5d602a83613687565b7f616d6f756e74206d75737420626520646976697369626c652062792074726164815269696e674c6f7453697a6560b01b602082015260400192915050565b6000612da9601283613687565b71776469766973696f6e206f766572666c6f7760701b815260200192915050565b6000612dd7601983610f28565b78454950373132446f6d61696e28737472696e67206e616d652960381b815260190192915050565b6000612e0c601983613687565b7874616b6572206f72646572206973206d616b6572206f6e6c7960381b815260200192915050565b6000612e41600a83613687565b6964657620756e7361666560b01b815260200192915050565b6000612e67600f83613687565b6e0e0e4d2c6ca40dcdee840dac2e8c6d608b1b815260200192915050565b6000612e92601283613687565b710dcde40dac2d6cae4e640e8de40dac2e8c6d60731b815260200192915050565b6000612ec0601383613687565b721a5b9d985b1a59081cda59db881b595d1a1bd9606a1b815260200192915050565b6000612eef606083610f28565b7f4f726465722861646472657373207472616465722c616464726573732062726f81527f6b65722c616464726573732070657270657475616c2c75696e7432353620616d60208201527f6f756e742c75696e743235362070726963652c62797465733332206461746129604082015260600192915050565b6000612f74601883613687565b77776d756c7469706c69636174696f6e206f766572666c6f7760401b815260200192915050565b6000612fa8601083613687565b6f75696e74323536206f766572666c6f7760801b815260200192915050565b6000612fd4600c83613687565b6b696e74206f766572666c6f7760a01b815260200192915050565b6000612ffc601483613687565b737375627472616374696f6e206f766572666c6f7760601b815260200192915050565b600061302c601a83613687565b7f73696465206d757374206265206c6f6e67206f722073686f7274000000000000815260200192915050565b6000613065600c83613687565b6b6d616b657220756e7361666560a01b815260200192915050565b600061308d601683613687565b75556e7375627472616374696f6e206f766572666c6f7760501b815260200192915050565b60006130bf601183613687565b701d5b9b585d18da19590818da185a5b9a59607a1b815260200192915050565b805160e08301906130f08482612729565b506020820151613103602085018261273b565b506040820151613116604085018261273b565b506060820151613129606085018261273b565b5060808201516111e8608085018280516060830190613148848261273b565b50602082015161315b602085018261273b565b5060408201516111e8604085018261273b565b612723816136c4565b60006131838285612744565b6020820191506131938284612744565b5060200192915050565b60006131a88261284e565b91506131b48284612744565b50602001919050565b60006131c88261294c565b91506131838285612744565b600061108b82612dca565b600061108b82612ee2565b6020810161108b8284612729565b6020810161108b828461271a565b60608101613214828661271a565b6132216020830185612729565b611502604083018461273b565b6060810161323c8286612729565b613221602083018561271a565b60a081016132578288612729565b6132646020830187612729565b613271604083018661275e565b61327e606083018561273b565b61328b608083018461273b565b9695505050505050565b606081016132148286612729565b61020081016132b28287612729565b6132bf60208301866130df565b6132cd6101008301856130df565b6106ef6101e083018461273b565b61012081016132ea8286612729565b6132f760208301856130df565b61150261010083018461273b565b608081016133138287612729565b613320602083018661273b565b61332d604083018561273b565b6106ef606083018461273b565b6020810161108b8284612732565b60808101613356828761273b565b613320602083018661316e565b6020810161108b8284612755565b6020808252810161108b81612767565b6020808252810161108b8161279b565b6020808252810161108b816127c7565b6020808252810161108b816127f6565b6020808252810161108b81612823565b6020808252810161108b81612887565b6020808252810161108b816128b0565b6020808252810161108b816128e9565b6020808252810161108b81612922565b6020808252810161108b8161296a565b6020808252810161108b81612991565b6020808252810161108b816129c0565b6020808252810161108b816129f2565b6020808252810161108b81612a21565b6020808252810161108b81612a4d565b6020808252810161108b81612a91565b6020808252810161108b81612aca565b6020808252810161108b81612afb565b6020808252810161108b81612b24565b6020808252810161108b81612b50565b6020808252810161108b81612b80565b6020808252810161108b81612bac565b6020808252810161108b81612be5565b6020808252810161108b81612c0b565b6020808252810161108b81612c40565b6020808252810161108b81612c79565b6020808252810161108b81612cbd565b6020808252810161108b81612cea565b6020808252810161108b81612d17565b6020808252810161108b81612d50565b6020808252810161108b81612d9c565b6020808252810161108b81612dff565b6020808252810161108b81612e34565b6020808252810161108b81612e5a565b6020808252810161108b81612e85565b6020808252810161108b81612eb3565b6020808252810161108b81612f67565b6020808252810161108b81612f9b565b6020808252810161108b81612fc7565b6020808252810161108b81612fef565b6020808252810161108b8161301f565b6020808252810161108b81613058565b6020808252810161108b81613080565b6020808252810161108b816130b2565b6020810161108b828461273b565b60405181810167ffffffffffffffff8111828210171561365e57600080fd5b604052919050565b600067ffffffffffffffff82111561367d57600080fd5b5060209081020190565b90815260200190565b600061108b826136b8565b151590565b90565b600061108b82613690565b80610f28816136e0565b6001600160a01b031690565b60ff1690565b600061108b826136a3565b600061108b826136ae565b600381106136ea57fe5b50565b6136f681613690565b81146136ea57600080fd5b6136f68161369b565b6136f6816136a0565b6136f6816136a3565b600381106136ea57600080fdfea365627a7a72315820eb0c99cb9efd75d4b5d2a168d50b0ff31addbb7fe8f295a419e29939998c8e9c6c6578706572696d656e74616cf564736f6c634300050f0040",
  "source": "pragma solidity 0.5.15;\npragma experimental ABIEncoderV2; // to enable structure-type parameter\n\nimport \"../lib/LibMath.sol\";\nimport \"../lib/LibOrder.sol\";\nimport \"../lib/LibSignature.sol\";\nimport \"../interface/IGlobalConfig.sol\";\nimport \"../interface/IPerpetual.sol\";\nimport \"../interface/IAMM.sol\";\n\ncontract Exchange {\n    using LibMathSigned for int256;\n    using LibMathUnsigned for uint256;\n    using LibOrder for LibOrder.Order;\n    using LibOrder for LibOrder.OrderParam;\n    using LibSignature for LibSignature.OrderSignature;\n\n    // to verify the field in order data, increase if there are incompatible update in order's data.\n    uint256 public constant SUPPORTED_ORDER_VERSION = 2;\n    IGlobalConfig public globalConfig;\n\n    // order status\n    mapping(bytes32 => uint256) public filled;\n    mapping(bytes32 => bool) public cancelled;\n    mapping(address => mapping(address => address)) public delegators;\n\n    event MatchWithOrders(\n        address perpetual,\n        LibOrder.OrderParam takerOrderParam,\n        LibOrder.OrderParam makerOrderParam,\n        uint256 amount\n    );\n    event MatchWithAMM(address perpetual, LibOrder.OrderParam takerOrderParam, uint256 amount);\n    event Cancel(bytes32 indexed orderHash);\n    event UpdateDelegate(address indexed trader, address indexed perpetual, address indexed newDelegator);\n\n    constructor(address _globalConfig) public {\n        globalConfig = IGlobalConfig(_globalConfig);\n    }\n\n    function setDelegator(address perpetual, address newDelegator) external {\n        require(delegators[msg.sender][perpetual] != newDelegator, \"delegate already set\");\n        delegators[msg.sender][perpetual] = newDelegator;\n        emit UpdateDelegate(msg.sender, perpetual, newDelegator);\n    }\n\n    function unsetDelegator(address perpetual) external {\n        require(delegators[msg.sender][perpetual] != address(0), \"delegate not set\");\n        delete delegators[msg.sender][perpetual];\n        emit UpdateDelegate(msg.sender, perpetual, address(0));\n    }\n\n    function isDelegator(address trader, address perpetual, address target) public view returns (bool) {\n        address delegator = delegators[trader][perpetual];\n        return delegator != address(0) && target == delegator;\n    }\n\n    /**\n     * Match orders from one taker and multiple makers.\n     *\n     * @param takerOrderParam   Taker's order to match.\n     * @param makerOrderParams  Array of maker's order to match with.\n     * @param _perpetual        Address of perpetual contract.\n     * @param amounts           Array of matching amounts of each taker/maker pair.\n     */\n    function matchOrders(\n        LibOrder.OrderParam memory takerOrderParam,\n        LibOrder.OrderParam[] memory makerOrderParams,\n        address _perpetual,\n        uint256[] memory amounts\n    ) public {\n        require(globalConfig.brokers(msg.sender), \"unauthorized broker\");\n        require(amounts.length > 0 && makerOrderParams.length == amounts.length, \"no makers to match\");\n        require(!takerOrderParam.isMakerOnly(), \"taker order is maker only\");\n\n        IPerpetual perpetual = IPerpetual(_perpetual);\n        require(perpetual.status() == LibTypes.Status.NORMAL, \"wrong perpetual status\");\n\n        uint256 tradingLotSize = perpetual.getGovernance().tradingLotSize;\n        bytes32 takerOrderHash = validateOrderParam(perpetual, takerOrderParam);\n        uint256 takerFilledAmount = filled[takerOrderHash];\n        uint256 takerOpened;\n\n        for (uint256 i = 0; i < makerOrderParams.length; i++) {\n            if (amounts[i] == 0) {\n                continue;\n            }\n\n            require(takerOrderParam.trader != makerOrderParams[i].trader, \"self trade\");\n            require(takerOrderParam.isInversed() == makerOrderParams[i].isInversed(), \"invalid inversed pair\");\n            require(takerOrderParam.isSell() != makerOrderParams[i].isSell(), \"side must be long or short\");\n            require(!makerOrderParams[i].isMarketOrder(), \"market order cannot be maker\");\n\n            validatePrice(takerOrderParam, makerOrderParams[i]);\n\n            bytes32 makerOrderHash = validateOrderParam(perpetual, makerOrderParams[i]);\n            uint256 makerFilledAmount = filled[makerOrderHash];\n\n            require(amounts[i] <= takerOrderParam.amount.sub(takerFilledAmount), \"taker overfilled\");\n            require(amounts[i] <= makerOrderParams[i].amount.sub(makerFilledAmount), \"maker overfilled\");\n            require(amounts[i].mod(tradingLotSize) == 0, \"amount must be divisible by tradingLotSize\");\n\n            uint256 opened = fillOrder(perpetual, takerOrderParam, makerOrderParams[i], amounts[i]);\n\n            takerOpened = takerOpened.add(opened);\n            filled[makerOrderHash] = makerFilledAmount.add(amounts[i]);\n            takerFilledAmount = takerFilledAmount.add(amounts[i]);\n        }\n\n        // all trades done, check taker safe.\n        if (takerOpened > 0) {\n            require(perpetual.isIMSafe(takerOrderParam.trader), \"taker initial margin unsafe\");\n        } else {\n            require(perpetual.isSafe(takerOrderParam.trader), \"maker unsafe\");\n        }\n        require(perpetual.isSafe(msg.sender), \"broker unsafe\");\n\n        filled[takerOrderHash] = takerFilledAmount;\n    }\n\n    /**\n     * @dev Match orders from taker with amm. It is exactly same with directly trading from amm.\n     *\n     * @param takerOrderParam  Taker's order to match.\n     * @param _perpetual        Address of perpetual contract.\n     * @param amount           Amount to fiil.\n     * @return Opened position amount of taker.\n     */\n    function matchOrderWithAMM(\n        LibOrder.OrderParam memory takerOrderParam,\n        address _perpetual,\n        uint256 amount\n    ) public {\n        require(globalConfig.brokers(msg.sender), \"unauthorized broker\");\n        require(amount > 0, \"amount must be greater than 0\");\n        require(!takerOrderParam.isMakerOnly(), \"taker order is maker only\");\n\n        IPerpetual perpetual = IPerpetual(_perpetual);\n        IAMM amm = IAMM(perpetual.amm());\n\n        bytes32 takerOrderHash = validateOrderParam(perpetual, takerOrderParam);\n        uint256 takerFilledAmount = filled[takerOrderHash];\n        require(amount <= takerOrderParam.amount.sub(takerFilledAmount), \"taker overfilled\");\n\n        // trading with pool\n        uint256 takerOpened;\n        uint256 price = takerOrderParam.getPrice();\n        uint256 expired = takerOrderParam.expiredAt();\n        if (takerOrderParam.isSell()) {\n            takerOpened = amm.sellFromWhitelisted(\n                takerOrderParam.trader,\n                amount,\n                price,\n                expired\n            );\n        } else {\n            takerOpened = amm.buyFromWhitelisted(takerOrderParam.trader, amount, price, expired);\n        }\n        filled[takerOrderHash] = filled[takerOrderHash].add(amount);\n\n        emit MatchWithAMM(_perpetual, takerOrderParam, amount);\n    }\n\n    /**\n     * @dev Cancel order.\n     *\n     * @param order Order to cancel.\n     */\n    function cancelOrder(LibOrder.Order memory order) public {\n        require(msg.sender == order.trader || msg.sender == order.broker, \"invalid caller\");\n\n        bytes32 orderHash = order.getOrderHash();\n        cancelled[orderHash] = true;\n\n        emit Cancel(orderHash);\n    }\n\n    /**\n     * @dev Get current chain id. need istanbul hardfork.\n     *\n     * @return Current chain id.\n     */\n    function getChainId() public pure returns (uint256 id) {\n        assembly {\n            id := chainid()\n        }\n    }\n\n    /**\n     * @dev Fill order at the maker's price, then claim trading and dev fee from both side.\n     *\n     * @param perpetual        Address of perpetual contract.\n     * @param takerOrderParam  Taker's order to match.\n     * @param makerOrderParam  Maker's order to match.\n     * @param amount           Amount to fiil.\n     * @return Opened position amount of taker.\n     */\n    function fillOrder(\n        IPerpetual perpetual,\n        LibOrder.OrderParam memory takerOrderParam,\n        LibOrder.OrderParam memory makerOrderParam,\n        uint256 amount\n    ) internal returns (uint256) {\n        uint256 price = makerOrderParam.getPrice();\n        (uint256 takerOpened, uint256 makerOpened) = perpetual.tradePosition(\n            takerOrderParam.trader,\n            makerOrderParam.trader,\n            takerOrderParam.side(),\n            price,\n            amount\n        );\n\n        // trading fee\n        int256 takerTradingFee = amount.wmul(price).toInt256().wmul(takerOrderParam.takerFeeRate());\n        claimTradingFee(perpetual, takerOrderParam.trader, takerTradingFee);\n        int256 makerTradingFee = amount.wmul(price).toInt256().wmul(makerOrderParam.makerFeeRate());\n        claimTradingFee(perpetual, makerOrderParam.trader, makerTradingFee);\n\n        // dev fee\n        claimTakerDevFee(perpetual, takerOrderParam.trader, price, takerOpened, amount.sub(takerOpened));\n        claimMakerDevFee(perpetual, makerOrderParam.trader, price, makerOpened, amount.sub(makerOpened));\n        if (makerOpened > 0) {\n            require(perpetual.isIMSafe(makerOrderParam.trader), \"maker initial margin unsafe\");\n        } else {\n            require(perpetual.isSafe(makerOrderParam.trader), \"maker unsafe\");\n        }\n\n        emit MatchWithOrders(address(perpetual), takerOrderParam, makerOrderParam, amount);\n\n        return takerOpened;\n    }\n\n    /**\n     * @dev Check prices are meet.\n     *\n     * @param takerOrderParam  Taker's order.\n     * @param takerOrderParam  Maker's order.\n     * @return Opened position amount of taker.\n     */\n    function validatePrice(LibOrder.OrderParam memory takerOrderParam, LibOrder.OrderParam memory makerOrderParam)\n        internal\n        pure\n    {\n        if (takerOrderParam.isMarketOrder()) {\n            return;\n        }\n        uint256 takerPrice = takerOrderParam.getPrice();\n        uint256 makerPrice = makerOrderParam.getPrice();\n        require(takerOrderParam.isSell() ? takerPrice <= makerPrice : takerPrice >= makerPrice, \"price not match\");\n    }\n\n    /**\n     * @dev Validate fields of order.\n     *\n     * @param perpetual  Instance of perpetual contract.\n     * @param orderParam Order parameter.\n     * @return Valid order hash.\n     */\n    function validateOrderParam(IPerpetual perpetual, LibOrder.OrderParam memory orderParam)\n        internal\n        view\n        returns (bytes32)\n    {\n        require(orderParam.orderVersion() == SUPPORTED_ORDER_VERSION, \"unsupported version\");\n        require(orderParam.expiredAt() >= block.timestamp, \"order expired\");\n        require(orderParam.chainId() == getChainId(), \"unmatched chainid\");\n\n        bytes32 orderHash = orderParam.getOrderHash(address(perpetual), msg.sender);\n        require(!cancelled[orderHash], \"cancelled order\");\n        address signer = orderParam.signature.getSigner(orderHash);\n        require(\n            signer == orderParam.trader || isDelegator(orderParam.trader, address(perpetual), signer),\n            \"invalid signature\"\n        );\n        require(filled[orderHash] < orderParam.amount, \"fullfilled order\");\n\n        return orderHash;\n    }\n\n    /**\n     * @dev Claim trading fee. Fee goes to brokers margin account.\n     *\n     * @param perpetual Address of perpetual contract.\n     * @param trader    Address of account who will pay fee out.\n     * @param fee       Amount of fee, decimals = 18.\n     */\n    function claimTradingFee(\n        IPerpetual perpetual,\n        address trader,\n        int256 fee\n    )\n        internal\n    {\n        if (fee > 0) {\n            perpetual.transferCashBalance(trader, msg.sender, fee.toUint256());\n        } else if (fee < 0) {\n            perpetual.transferCashBalance(msg.sender, trader, fee.neg().toUint256());\n        }\n    }\n\n\n    /**\n     * @dev Claim dev fee. Especially, for fee from closing positon\n     *\n     * @param perpetual     Address of perpetual.\n     * @param trader        Address of margin account.\n     * @param price         Price of position.\n     * @param openedAmount  Opened position amount.\n     * @param closedAmount  Closed position amount.\n     * @param feeRate       Maker's order.\n     */\n    function claimDevFee(\n        IPerpetual perpetual,\n        address trader,\n        uint256 price,\n        uint256 openedAmount,\n        uint256 closedAmount,\n        int256 feeRate\n    )\n        internal\n    {\n        if (feeRate == 0) {\n            return;\n        }\n        address devAddress = perpetual.devAddress();\n        int256 available = perpetual.availableMargin(trader);\n        int256 openFee = price.wmul(openedAmount).toInt256().wmul(feeRate);\n        require(openFee <= 0 || available >= openFee, \"available margin too low for fee\");\n        int256 closeFee = price.wmul(closedAmount).toInt256().wmul(feeRate);\n        if (closeFee > 0) {\n            closeFee = available < 0? 0: closeFee.min(available);\n        }\n        int256 fee = openFee.add(closeFee);\n        if (fee > 0) {\n            perpetual.transferCashBalance(trader, devAddress, fee.toUint256());\n        } else if (fee < 0) {\n            perpetual.transferCashBalance(devAddress, trader, fee.neg().toUint256());\n            require(perpetual.isSafe(devAddress), \"dev unsafe\");\n        }\n    }\n\n    /**\n     * @dev Claim dev fee in taker fee rate set by perpetual governacne.\n     *\n     * @param perpetual     Address of perpetual.\n     * @param trader        Taker's order.\n     * @param price         Maker's order.\n     * @param openedAmount  Maker's order.\n     * @param closedAmount  Maker's order.\n     */\n    function claimTakerDevFee(\n        IPerpetual perpetual,\n        address trader,\n        uint256 price,\n        uint256 openedAmount,\n        uint256 closedAmount\n    )\n        internal\n    {\n        int256 rate = perpetual.getGovernance().takerDevFeeRate;\n        claimDevFee(perpetual, trader, price, openedAmount, closedAmount, rate);\n    }\n\n    /**\n     * @dev Claim dev fee in maker fee rate set by perpetual governacne.\n     *\n     * @param perpetual     Address of perpetual.\n     * @param trader        Taker's order.\n     * @param price         Maker's order.\n     * @param openedAmount  Maker's order.\n     * @param closedAmount  Maker's order.\n     */\n    function claimMakerDevFee(\n        IPerpetual perpetual,\n        address trader,\n        uint256 price,\n        uint256 openedAmount,\n        uint256 closedAmount\n    )\n        internal\n    {\n        int256 rate = perpetual.getGovernance().makerDevFeeRate;\n        claimDevFee(perpetual, trader, price, openedAmount, closedAmount, rate);\n    }\n}\n",
  "sourcePath": "/home/work/Workspace/mai-protocol-v2/contracts/exchange/Exchange.sol",
  "compiler": {
    "name": "solc",
    "version": "0.5.15+commit.6a57276f.Emscripten.clang"
  },
  "schemaVersion": "3.0.11",
  "updatedAt": "2020-07-29T09:35:07.669Z",
  "devdoc": {
    "methods": {
      "cancelOrder((address,address,address,uint256,uint256,bytes32))": {
        "details": "Cancel order.",
        "params": {
          "order": "Order to cancel."
        }
      },
      "getChainId()": {
        "details": "Get current chain id. need istanbul hardfork.",
        "return": "Current chain id."
      },
      "matchOrderWithAMM((address,uint256,uint256,bytes32,(bytes32,bytes32,bytes32)),address,uint256)": {
        "details": "Match orders from taker with amm. It is exactly same with directly trading from amm.",
        "params": {
          "_perpetual": "Address of perpetual contract.",
          "amount": "Amount to fiil.",
          "takerOrderParam": "Taker's order to match."
        },
        "return": "Opened position amount of taker."
      },
      "matchOrders((address,uint256,uint256,bytes32,(bytes32,bytes32,bytes32)),(address,uint256,uint256,bytes32,(bytes32,bytes32,bytes32))[],address,uint256[])": {
        "params": {
          "_perpetual": "Address of perpetual contract.",
          "amounts": "Array of matching amounts of each taker/maker pair.",
          "makerOrderParams": "Array of maker's order to match with.",
          "takerOrderParam": "Taker's order to match."
        }
      }
    }
  },
  "userdoc": {
    "methods": {
      "matchOrders((address,uint256,uint256,bytes32,(bytes32,bytes32,bytes32)),(address,uint256,uint256,bytes32,(bytes32,bytes32,bytes32))[],address,uint256[])": {
        "notice": "Match orders from one taker and multiple makers."
      }
    }
  }
}